:020000041000EA
:1000000000B5324B212058609868022188439860DF
:10001000D860186158612E4B002199600221596106
:100020000121F02299502B49196001219960352056
:1000300000F044F80222904214D00621196600F024
:1000400034F8196E01211966002018661A6600F04E
:100050002CF8196E196E196E052000F02FF8012189
:100060000842F9D1002199601B49196000215960AB
:100070001A491B48016001219960EB211966A021F2
:10008000196600F012F800219960164914480160C1
:100090000121996001BC002800D000471248134993
:1000A000086003C880F30888084703B5996A0420EC
:1000B0000142FBD001200142F8D103BD02B5186610
:1000C0001866FFF7F2FF186E186E02BD00000240BE
:1000D000000000180000070000035F00212200005C
:1000E000F4000018222000A00001001008ED00E03C
:1000F00000000000000000000000000074B24E7A12
:1001000000200420F7010010C3010010C5010010F9
:10011000C1010010C1010010C1010010C101001097
:10012000C1010010C1010010C1010010C701001081
:10013000C1010010C1010010C9010010CB01001065
:10014000CD010010CD010010CD010010CD01001037
:10015000CD010010CD010010CD010010CD01001027
:10016000CD010010CD010010CD010010CD01001017
:10017000CD010010CD010010CD010010CD01001007
:10018000CD010010CD010010CD010010CD010010F7
:10019000CD010010CD010010CD010010CD010010E7
:1001A000CD010010CD010010CD010010CD010010D7
:1001B000CD010010CD010010CD010010CD010010C7
:1001C00000BE00BE00BE00BE00BE00BE00F04BF888
:1001D000103800BEF2EB8871F0C3051014C405108E
:1001E0003402001090A31AE700202149086006C8D5
:1001F00081F3088810471F48006800282FD10DA4FC
:100200000ECC002902D000F012F8F9E71A491B4A77
:10021000002000E001C19142FCD1194988471949E9
:1002200088471949884700BEFDE701C901C29A42C3
:10023000FBD3704714C40510C0000020201E00200E
:1002400074E10510000004200000042074E1051092
:1002500000100420001004200000000070470B482C
:1002600003F0C6FE0047EFF30580C0B27047000000
:1002700008ED00E0000000D0201E0020A81A012098
:100280001129001079030010CD28001057560000E6
:1002900006005250ABB3605394B60410060052509F
:1002A000861C03029CB60410060052505422A29DE4
:1002B000B0B6041005005250DE65F46874E1051014
:1002C000F8B5C0460448054B10B5834203D0044B33
:1002D000002B00D0984710BD201E0020201E0020BB
:1002E0000000000006480749091A8B10C90FC918F9
:1002F00010B5491003D0044B002B00D0984710BD17
:10030000201E0020201E00200000000010B5074C19
:100310002378002B09D1FFF7D5FF054B002B02D026
:10032000044800E000BF0123237010BDB81F002067
:100330000000000040930410054B10B5002B03D0C3
:100340000449054800E000BFFFF7CCFF10BDC046E0
:1003500000000000BC1F00204093041010B5802155
:100360008900034844F03EF8024B186010BDC046B7
:10037000B4250020340C0120D0B582B005F02CFB50
:10038000614805F0EBFA0421192000F0C3FC5F4B33
:10039000802252001A665E4B1A68012393435D4A1D
:1003A00013605D4800F05CFB002803D15B4805F05A
:1003B000D5FAFEE75A4800F031F9002803D1594830
:1003C00005F0CCFAFEE700F011FC00F081FC0A20F9
:1003D00000F0F4FB00F0F8FBFA20400001F0FEFD15
:1003E00000F0F8FB4C4C200000F0E8FA4E4B18608F
:1003F000200000F007FB8521C90504F050FE04F041
:10040000C9FE4A4B1860200000F006FB04F0A0FE75
:10041000474B1860474843F0A1FE00280ADB4648D6
:1004200043F0DAFF43F08AFF002832DA434805F050
:1004300095FAFEE7424805F091FAFEE7364800F0EB
:10044000C3FA041C04F0E8FE06000F003D4A3E4BD0
:1004500004F0EEF8002851D032003B003B4805F094
:10046000AFFA0A2000F0AAFB00F0AEFB384801F01A
:10047000B5FD00F0AFFB3749201C04F010FE04F07E
:10048000BBFE0304344A106843401B0C1B04334A70
:100490001360334B1B68002BFBD0314B00221A60DA
:1004A000214B19687C2304321D4800F072F92D4C51
:1004B0008023DB00E1188022200005F02DF9802345
:1004C000621CFF329B000021274846F01FFD0024DC
:1004D000032CB3DC210220007830C2011018134B2A
:1004E0001B68114A126812181E4809181048006843
:1004F00000900B4800F0E8F80134E9E732003B00D7
:100500001A4805F05DFAB6E7409304100000054074
:10051000500005405010054080F900205C93041005
:100520005030002078930410540C0120601A0120F0
:10053000641A01202C9404105D030010B893041079
:10054000989304109A9999999999B93FD89304105E
:10055000DC05000000007F435C0005405C100540A6
:10056000340C01207C340020B425002004940410B5
:1005700070B504000D00012805D0002C02D10D4BF0
:100580009D420FD070BD0B4B9942F6D1802149009E
:10059000094800F039F8802292020849084800F022
:1005A000F1F9EAE7064800F06DF9034800F012F8A7
:1005B000E8E7C046FFFF00005030002048940410D8
:1005C00080F9002010B502490120FFF7D1FF10BDCE
:1005D000FFFF000010B50400054B0833036080687E
:1005E000002803D005F0A6F80023A360200010BD6A
:1005F00098A4041010B50400FFF7ECFF242120009C
:1006000005F09CF8200010BD034B083303604160E7
:10061000002383607047C04698A40410F0B583B0EF
:1006200005004068244B984207D8400005F07EF84A
:10063000A86000283BD000242AE001204042F5E7D2
:10064000200004F080FD1D4904F029FD061C38003F
:1006500004F07EFD011C301C04F00BFD46F01CFB79
:1006600004F0DAFD02000B000020154903F057FFEB
:100670000022144B03F083FF04F092F80190610014
:10068000AB689C466144012201A846F0D5F90134CB
:100690006F68A742D4D828000C300123002239000B
:1006A00044F07AFD002804D1013003B0F0BD0020F1
:1006B000FBE70020F9E7C046FCFFFF3FDB0FC94026
:1006C0000000F03F0000E03FF8B5DE4657464E46DA
:1006D0004546E0B500AF804616009946BB6A9B468A
:1006E00043685A000732D208D2006846821A9546FB
:1006F0006D469A000732D208D200AA1A95466C4677
:10070000DA0FD2185210013252000732D208D2004A
:10071000A21A9546EA462A004046806846F080FBC9
:1007200040460C302200290044F040FE43465B68FE
:10073000DA0FD218521001325146200046F0F8F973
:10074000002503E07F2030700135013643465B68A9
:10075000DC0FE4186410A54214DC6B005246985E6E
:10076000494603F071FC04F0F3FC594604F07CFCAC
:1007700004F010FD7F28E5DC03008033E3DA8020FD
:100780004042E0E7BD46F0BCBB46B246A946A046A3
:10079000F8BD70B50500080014006968CA0F52184A
:1007A000521001322100514341181B1B5A4347F09C
:1007B00073FF70BD0023036043608360704710B512
:1007C00003685B69984710BD10B503689B6998473B
:1007D00010BD0000034B0360034B0360034B036039
:1007E0007047C046B8A5041090A5041074A5041065
:1007F000034B0360034B0360034B03607047C04629
:10080000B8A5041090A5041074A50410044B03604F
:10081000044B0360044B0360044B03607047C04605
:10082000E0A50410B8A5041090A5041074A5041048
:10083000044B0360044B0360044B0360044B0360F0
:100840007047C046E0A50410B8A5041090A5041098
:1008500074A5041010B5040020290CD00022084B08
:10086000E358934209D95301E318181D9B698B4241
:1008700004D00132F3E7002000E0002010BDC046A4
:100880000410000070B50400114B08330360856943
:10089000002D08D028003EF0E2FD9821280004F049
:1008A0004DFF0023A361E068002803D004F042FF5D
:1008B0000023E360074B6362074B6362074B63628D
:1008C000074B6362074B2361074B2361200070BD18
:1008D00000A60410E0A50410B8A5041090A504100B
:1008E00074A504108C20051060A5041010B5040038
:1008F000FFF7C8FF0249200004F020FF200010BDD0
:10090000B412000070B50D4BC458802C01D80023E0
:1009100002E047F095FB01339C420CD9C218084D08
:10092000AC46624412788A42F5D1064A9446634442
:100930009B00185800E0002070BDC04688120000DF
:100940000810000022040000F8B505000E00002485
:1009500000E001340A4BEB58A3420ED96301EB18B7
:100960001F1D9B69202BF4D16301EB18D86931005E
:1009700048F066F80028ECD100E000273800F8BD08
:100980000410000010B50400094B083303604160F7
:1009900082600023C360074A0261074A0261436123
:1009A0008361C361036224300AF022FB200010BD82
:1009B00000A6041060A504108C200510C069002852
:1009C00000D000697047000070B5040080693FF0F6
:1009D00039F9002811D1246A23690020185604F03F
:1009E000B7FB051CE06804F0B3FB011C281C04F0F5
:1009F00036FBA16804F053FB70BD0148FCE7C0461C
:100A00000000C07FC369002B01D09868704701487F
:100A1000FCE7C0460000C07FC369002B01D0D86846
:100A200070470020FCE7704710B50068FFF7FBFF38
:100A300010BD704710B50068FFF7FBFF10BD704791
:100A400010B50088FFF7FBFF10BD10B5040000686B
:100A5000FFF7E9FF201810BD10B5FFF7F6FF10BD36
:100A600070B584B004004068FFF7F6FF05006061D0
:100A7000FFF7E0FF2E1A3000FFF7E2FF042803D94A
:100A8000301DFFF7DDFF00E00020002804D028180B
:100A9000FFF7CAFF020000E00022032A08D020006E
:100AA00010300323224907F021FE002004B070BD5E
:100AB000A06804F03BFEE060002824D0982004F0F9
:100AC00031FE050026001036220024320023029356
:100AD0000196A3680093E36861693EF053FDA56148
:100AE000002D18D028003EF0C7FF002819D10021A2
:100AF000A0693EF075FDE0610021A0693EF02EFE88
:100B000020620120D2E720001030A268094907F0D6
:100B1000EDFD0020CAE70849300007F0E7FD00209E
:100B2000C4E70649300007F0E1FD0020BEE7C046FB
:100B3000A8A40410F0A404101CA504103CA50410E3
:100B400000B587B00F226A44107017236B44FF2151
:100B5000197001230093A5390C4844F005FB0028C7
:100B600004D117236B44187807B000BD002300930D
:100B7000013317226A445A21044844F001FB831CC4
:100B8000EFD117236B441878EEE7C046A415002078
:100B900000B585B06B461873597300230093023378
:100BA00003AA5A21044844F0DFFA831C02D0012032
:100BB00005B000BD0020FBE7A415002010B5010022
:100BC0000320FFF7E5FF10BD10B501210C20FFF752
:100BD000DFFF10BD10B500210C20FFF7D9FF10BDBD
:100BE00010B501000120FFF7D3FF10BD10B5364945
:100BF000364844F08DFA03210A2000F08BF80321D7
:100C00000B2000F087F80020FFF79AFF4009C0B2E0
:100C1000032801D0072854D100210120FFF7B8FF95
:100C2000002802D10024200010BD00210220FFF77F
:100C3000AFFF0028F6D001210420FFF7A9FF00280C
:100C4000F0D000210520FFF7A3FF0028EAD0002103
:100C50000D20FFF79DFF0028E4D000210E20FFF7B4
:100C600097FF0028DED000210F20FFF791FF00281A
:100C7000D8D000211020FFF78BFF0028D2D06421AC
:100C80001320FFF785FF0028CCD01A20FFF758FF6C
:100C90007F2101401A20FFF77BFF0028C2D01D20D2
:100CA000FFF74EFF20230343D9B21D20FFF770FF4B
:100CB000041EB7D00120FFF781FF0020FFF790FF4F
:100CC000B1E70024AFE7C046A0860100A4150020CC
:100CD00010B51A20FFF734FF802149420143C9B201
:100CE0001A20FFF755FF10BD10B5E1214902074852
:100CF00001F08EFD0221002000F00CF802210120FD
:100D000000F008F8024B1B7810BDC04600400340BD
:100D10000CC4051010B58300084A944663441C684F
:100D200040226240C02414408022520113431C60C0
:100D3000C000034B9C466044416010BD04C00140AC
:100D400000400140EFF3108072B6034B1B68002B8C
:100D5000FBD0BFF35F8F70472C0100D0BFF35F8FD4
:100D6000024B00221A6080F3108870472C0100D0DB
:100D7000F8B506000C001500FFF7E4FFE308F718CC
:100D8000F15C07222240012393400B4205D1DBB2E4
:100D90000B433B70FFF7E2FFF8BD2100280001F094
:100DA00033FEF0B583B00600019114001F00FFF779
:100DB000C9FF00E00134BC420CD8E308F518F35C2D
:100DC0000721214001228A401A42F3D1D2B21A43AC
:100DD0002A7001E001246442FFF7C0FF002C02DB0F
:100DE000200003B0F0BD019B002BF9D0089801F062
:100DF0000BFE000070B505000C00FFF7A3FFE30831
:100E0000EE18EA5C07210C400123A340134204D0F2
:100E10009A433270FFF7A2FF70BD034B034A2C3197
:100E2000034801F057FDC04618A6041090A6041010
:100E300038A60410034B1B6802201840431E98413B
:100E4000C0B2704700C00640002307E0054A9A1868
:100E50009200BFF35F8F0021116001331F2BF5D982
:100E60007047C04640000034054A1078431CDBB28E
:100E70001370172B02D9130010221A707047C04646
:100E80009814002000B583B00100044B00931F2389
:100E900018220348FFF785FF03B000BDA0A6041089
:100EA000B4290020074B9B68103080001950BFF315
:100EB0005F8FBFF35F8F044B0021196082F31088AE
:100EC0007047C04600ED00E0240100D010B5091ABB
:100ED000081F0A4B9C466144094A914208D8C3073F
:100EE00006D440104005400D064B184380B210BD9B
:100EF000054B064A9921064801F0ECFCFC0700006E
:100F0000FE0F000000E0FFFFBCA6041030A9041093
:100F1000ECA6041010B5091A04394C08090B08D1C5
:100F20004905490D064A11430180064B234343807E
:100F300010BD054B054AA121054801F0CBFCC04678
:100F400000F0FFFF00F8FFFF40A7041004A9041001
:100F5000ECA6041001238340034A10681840431E86
:100F60009841C0B27047C04600E100E0002904D0BB
:100F7000034B1860034B18607047034B1860FBE786
:100F800080E200E000E100E080E100E010B5012334
:100F900083401800FFF7EAFF10BD000001238340E3
:100FA000014A13607047C04600E200E0024B9B68B4
:100FB00010308000C058704700ED00E010B5FFF71A
:100FC000F5FF002805D0054BC01A2F2803D80120B3
:100FD00010BD0020FCE70020FAE7C0469C1400206A
:100FE00070B504000D00EFF3108672B60C4B1B6851
:100FF000002BFBD0BFF35F8F2000FFF7D7FF094B1B
:10100000984201D0A84205D1320029002000FFF704
:1010100049FF70BD044B054A7C21054801F05AFC8C
:10102000240100D0CD01001050A7041064A90410C1
:10103000ECA60410F0B5DE4657464E464546E0B5F0
:1010400089B0814601911500EFF3108A72B6744B96
:101050001B68002BFBD0BFF35F8F724B0027DF575D
:10106000002F40DB7C00E419A4006F4824180622FE
:10107000A2566C4B1A706D4B9A684B4610339B000E
:10108000D35898461E001B1A2F2B38D9684B984509
:101090002FD105AE674B33807B009B46D81980006B
:1010A000614B9846404402306349FFF70FFF708060
:1010B000624BB380FF23B371F571019B07935F44CB
:1010C000BF0047440ECE0EC701231C43A046524624
:1010D00041464846FFF7E6FE09B0F0BCBB46B246C3
:1010E000A946A046F0BD564B564ACD21564801F0C0
:1010F000F1FB564B534AD421534801F0EBFBC0435C
:1011000040440C2102F0C8FF002912D101239E4364
:10111000B34633000026DA79AA4211D9062159567E
:1011200000290CDB4A00521892001E003E4B9B180F
:10113000F1E7474B434AE021434801F0CBFB1E0057
:10114000002E3BD005AB434A1A80813A5A800623D1
:10115000F3560293002B18DABD20000205AB9B4624
:101160009880029A9A71DD71019A0792301D2100D0
:10117000FFF7ACFEB080B7717B00DB199B002A4FF4
:10118000FF185B4607CB07C7A1E77800C0198000AE
:10119000254BC0180430321DB388D90A1C2907D149
:1011A0005B055915023149005118FFF78FFED5E74D
:1011B000294B2A4AA721244801F08CFB05AE1D4B80
:1011C00033807B000293D8198000174A90460200B2
:1011D00042440392901C1849FFF778FE7080039AEE
:1011E000101D5946FFF772FEB0801D4B5A4641460E
:1011F000521A524153431B0DB371F571019A079274
:10120000029B9C466744BF0047440ECE0EC7114B5D
:101210005A461380813B538001231C43A04656E766
:10122000240100D0A11A01209C14002000ED00E050
:10123000CD01001000A1FFFFCC14002000BDFFFF76
:1012400088A704104CA90410ECA60410B0A7041041
:10125000D8A70410014800004CA804103CA90410B1
:10126000AAAA0000F0B5CE46474680B583B0060076
:101270000D00EFF3108872B6564B1B68002BFBD0A5
:10128000BFF35F8F544B9A6834001034A300D758D3
:10129000524B9F4207D0AF4200D199E00197504B8B
:1012A000FB1A2F2B09D9424639003000FFF7FAFD0F
:1012B00003B0C0BCB946B046F0BD3000FFF74AFEEF
:1012C000814600213000FFF761FEBFF35F8FFEF71C
:1012D000CAFF002801D0844211D10123019C9C4304
:1012E0000022A368AB4212D00622A256002A0DDBD0
:1012F00053009B189B002200394CE418F1E72C2185
:10130000384B394AFF31394801F0E4FA2200AB4248
:1013100057D106256557002D39DB6B005B199A0004
:101320002F4B9B189A68A260DA79E27106229A56CE
:10133000A2719B795BB2002B10DABD200002A08065
:101340006B005B199B00264AD318294A11789971C2
:10135000157049463000FFF719FEA4E7201D6B0009
:101360005B199B001E4A9B181A1D9B88D90A1C29D1
:1013700007D15B055B15023359005118FFF7A6FD35
:10138000DDE71C4B1C4AA721184801F0A3FA0028EE
:1013900012D1002A0ED0FF239371184B9380144A68
:1013A0001378A371164B0E49641A644163431B0DF5
:1013B0001370CEE7094FF2E7201D1249FFF7AAFD8F
:1013C000C7E76021104B084AFF31084801F082FA54
:1013D000024F68E7240100D000ED00E0CD010010CD
:1013E0009C14002064A804101CA90410ECA604108E
:1013F000A11A01204CA804103CA9041000BDFFFF55
:10140000AAAA0000D614002088A8041070B5040011
:10141000012606432D4BF31A2F2B28D8FEF723FF66
:1014200000282BD0EFF3108C72B6294B1B68002BD1
:10143000FBD0BFF35F8F274D22002449521A52413F
:1014400055432D0D6DB2244B9B6880001B58B34251
:101450001BD00022032A32D853009B189B001B4943
:10146000CB189B795BB2AB421FD00132F2E7C221AD
:101470001A4B1B4A49001B4801F02CFA88211A4BD1
:10148000174AFF31174801F025FA134B9B68174A9A
:101490001A50174B1A78A2711D70BFF35F8F0C4B57
:1014A00000221A608CF3108870BD08005300991850
:1014B00089004118FF268E710E4A8A80E9E7CC2107
:1014C0000D4B074A4900074801F004FA9C1400201C
:1014D000240100D0AAAA000000ED00E090A80410AA
:1014E000E8A80410ECA60410B8A80410CD01001060
:1014F000A11A012000BDFFFFC4A804100022044B64
:1015000002E0044902C30132072AFAD97047C046F3
:1015100000E400E08080808000B583B00100D0232B
:101520001B061B680648C018064B009305230022C3
:10153000FFF737FC002801DB1F23181A03B000BD9A
:10154000981A0120CCA80410024B9C4661448900E3
:10155000016070474000003470B505000C000800C1
:1015600000F0CCFD200000F0B1FE0849200000F0A2
:10157000F1FDFFF779FC064B9C46604480006860F3
:101580002C75A400034BE55070BDC0469D1800109B
:10159000400000343C0C01200A4B1A68EFF3108124
:1015A00072B61368002BFCD0BFF35F8F054B1B682E
:1015B000BFF35F8F00221A6081F3108840BF0020C4
:1015C000002170475C1A012010B5002922D0036861
:1015D0001B7B99421ED8174B9C46614409018368C6
:1015E0009C4661440C684968002A19D003681B7B3B
:1015F0009A4215D883680F488446624412019A18AB
:1016000010685368020001208B4201D80ED00020E0
:10161000C0B210BD084B094A3B21094801F05AF9F4
:10162000054B064A3B21064801F054F9A242EFD887
:10163000EDE7C046FFFFFF0FE0A90410CCAC04109B
:1016400094A9041010B500291ED0037B99421BD821
:101650004B005B18033B0468A4466344002919D07F
:10166000002A1DD0914221D0002A25D0047BA2421D
:1016700022D8046850008018033820188170197827
:1016800000291FD11A7010BD104B114A6821114852
:1016900001F020F9104B114A6F310E4801F01AF990
:1016A0000F4B0E4A70210B4801F014F90D4B0B4AF9
:1016B0007121084801F00EF9044B054A68210548DC
:1016C00001F008F941701A70DDE7C04614AA041051
:1016D00038AD041030AA041090AA041014AD041000
:1016E0009CAA0410A8AA041070B506000D001400EE
:1016F000002914D0002A14D0806873689847002805
:1017000006D0220029003000FFF79CFF280007E0E8
:101710002A0021003000FFF795FF200000E01000B4
:1017200070BD0800FCE70000F0B583B00500009232
:1017300001930AAB1C780BAB1F78002C26D00368F2
:101740005A7B944207D10123002B19D1002C3BD1A5
:10175000200003B0F0BD002C0CD01A7B944209D8B5
:101760001A6863001B19033BD3189B78002BEBD03E
:101770000123E9E73E4B3F4A68213F4801F0AAF8C0
:101780003E4B3F4A65213F4801F0A4F803689C7B2B
:10179000002CDBD012D01A7B94420FD862001219B1
:1017A000033A19688C46624451789973002900D134
:1017B000D9730023937053701370C7E72C4B2D4AD5
:1017C00068212D4801F086F8002C3AD02B681B7B4D
:1017D0009C4236D82C4BE3181B01AA6894466344FC
:1017E000009A1A60019A5A60089A9A60099ADA6017
:1017F0002E68002C2BD030D0337B9C422DD8630038
:101800001B19033B32689446634400229A705A7055
:101810001A70717B22003000FFF766FF70738442FC
:1018200000D095E7287D009A019B00F0DBFC061EA6
:1018300001D0002F17D00C9B002B00D188E71E7021
:1018400086E7124B124A3B210E4801F043F8114B38
:10185000114AA521084801F03DF8054B054A6821C9
:10186000054801F037F82868210000F0E3FEE2E7C0
:1018700014AA041038AD041030AA0410C0AA041031
:1018800044AD041094A90410FFFFFF0FE0A9041059
:10189000CCAC041090A9041028AD0410F0B5DE46BD
:1018A00057464E464546E0B58BB009900023089355
:1018B0008200B24BD658370032E0B14BB14A3F21DB
:1018C000B14801F007F8B14BB14A3B21B14801F0F2
:1018D00001F8B14BB14A8C21AE4800F0FBFFB04B90
:1018E000AE4A9021AB4800F0F5FFA84BAD4A40212D
:1018F000A84800F0EFFF2A686B68099800F072FCB6
:1019000000239A4698467B68BFF35F8F00221A60D7
:1019100086F310884346002B51D1002800D126E1E0
:1019200000F0F8FB02000B1EC7DB00200021069030
:1019300007917868EFF3108672B601680029FCD031
:10194000BFF35F8F396888464C7B002C32D0BAD009
:10195000097B8C42B7D8944965182D01B9688C462B
:10196000654428686968801A99410029C3DC01D15F
:101970000028C0D10021404600F052FEA042A8D16C
:101980002A686B6806920793AB689846EB689A469C
:101990004346002BA3D0002CA7D03B681B7B9C4266
:1019A000A3D8631EFA68D35C08931B0218433861FE
:1019B0000020A8E700239A4698460020A3E7089B4A
:1019C0001B022343994651461800C04705000E00EC
:1019D0007A68EFF3108B72B6136859424B41D9B253
:1019E000002BF9D1BFF35F8F002E26DB002E52DDD6
:1019F0003B69002B53D04B4572D100F08BFB0200AA
:101A00000B1E73DB0100180052197341984202D873
:101A100004D1914202D901225242D317002B6BDB31
:101A200000210491013103910294514601914146F4
:101A300000913800FFF778FE49E03B69002BD5D0D4
:101A40004B451CD1069A079B10001900521BB3414D
:101A5000994202D804D1904202D901225242D317AE
:101A6000002B12DB002104910131039102945146B5
:101A70000191414600913800FFF756FE27E04B4B9D
:101A8000464A9F21434800F025FF3D4B3D4A3F21F8
:101A90003D4800F01FFF002E01D1002DA8D13A686B
:101AA000002C45D0537B9C422CD1012100293FD1F1
:101AB000D37B002B42D1D473002C52D03B681B7BCC
:101AC0009C424ED8FA68013C135D01331355002344
:101AD0003B617A68BFF35F8F13608BF310881FE759
:101AE000324B2E4AA2212B4800F0F4FE244B254A0B
:101AF0003F21254800F0EEFE214B224A3F2122489B
:101B000000F0E8FE002C0DD0137B9C420AD8630045
:101B10001B19033B1068844663449B78002BC5D097
:101B20000121C3E7224B234A6821234800F0D2FE5B
:101B3000224B234AF621204800F0CCFE002B0AD08D
:101B4000117B8B4207D85900CB18033B11688C4698
:101B500063445C70AFE7164B164A6821164800F0E4
:101B6000B9FE0A4B0F4A40210A4800F0B3FE0BB001
:101B7000F0BCBB46B246A946A046F0BD3C0C0120D5
:101B8000E8AA041098AC041004AB0410E0A90410F7
:101B9000CCAC041094A9041060AB0410B0AC0410D9
:101BA00078AB0410F0AC0410FFFFFF0F84AB0410FF
:101BB00014AA041038AD041030AA0410C0AB0410ED
:101BC00004AD041010B50A4B5B68002B04D00A2149
:101BD0000848FFF7B9FC10BD054C2300064A102148
:101BE000206800F03DFC03212000FFF7B5FCEEE784
:101BF000E41400205C1A0120C915001010B5064B32
:101C00005B68002B01D0044810BD044B044A5C21E2
:101C1000044800F05FFEC046E4140020E4AB04106A
:101C2000D8AC041094A90410F0B5DE4657464E46D1
:101C30004546E0B58BB0804616001F00149B9A46BF
:101C4000159B994616AB1B789B461F2302AA944608
:101C5000634400221A7032E0002809D0424612681C
:101C6000127B904204D8421E4146C9688A5C48E013
:101C7000434B444A4021444800F02CFE0798002B77
:101C800075D05B46002B72D04946D04704000D004A
:101C900003000B4300D171E0002946DB00F03AFA63
:101CA00006000F1E55DB36196F41B94202D804D128
:101CB000B04202D901267642F717002F4FDB434688
:101CC0005A68EFF3108472B6136859424B41D9B287
:101CD0000791002BF8D1BFF35F8F1F3302AA944600
:101CE000634404930023039302934B4601935346AA
:101CF000009332003B004046FFF716FD031EABD1B8
:101D0000020041464968BFF35F8F00250D6084F3F0
:101D10001088002B29D01F2302A98C4663441B780E
:101D2000002BABD112021043A9E732003B00361B57
:101D3000AF41BB4202D804D1B24202D90126764259
:101D4000F717002FBBDA114B114A3F21114800F061
:101D5000C1FD0E4B0E4A3F210E4800F0BBFD0B4B60
:101D60000B4A3F210B4800F0B5FD012040420BB06B
:101D7000F0BCBB46B246A946A046F0BD0798F6E7C0
:101D8000E0A90410F0AC041094A90410E8AA04100F
:101D900098AC041004AB0410F8B504004268EFF3EB
:101DA000108572B6136858424341D8B2002BF9D15E
:101DB000BFF35F8FCBB22268567BB3421BD10120A9
:101DC000002848D0206988422BD0090AC9B2002BCC
:101DD0002ED02068007B83422AD8581EE668305CEB
:101DE00088422BD000206368BFF35F8F00221A6007
:101DF00085F31088F8BD002B0DD0167BB3420AD8AE
:101E00005E00F618033E1768BC466644B678002E9E
:101E1000D6D00120D4E7134B134A6821134800F0B1
:101E200059FD8521124B134A4900134800F052FD19
:101E3000124B134A4021104800F04CFD19001000CD
:101E400000F0F8FB0028CED112210E4B094AFF31D9
:101E5000094800F03FFD23698B42C4D10023236170
:101E6000C1E7C04614AA041038AD041030AA04100B
:101E700008AC041080AC041094A90410E0A904106C
:101E8000F0AC04102CAC0410F0B587B006000F00C5
:101E9000FEF7E9F900281FD106246442E517A419CA
:101EA0007D41BD4202D803D1B44201D900240025AE
:101EB000002D14DB0494059500F02CF902000B1E94
:101EC00013DBA41A9D41002D17DC14D0300039001B
:101ED00000F02CF907B0F0BD234800F095FD234B2E
:101EE000234A3F21234800F0F5FC204B204A3F21A4
:101EF000204800F0EFFC002CE8D0FFF77FFE002325
:101F0000029301931C4B0093049A059BFFF78CFEF0
:101F1000002818DADAE7002300E00023002BD5D1EF
:101F2000164B1A68EFF3108172B61368002BFCD0C1
:101F3000BFF35F8F114B1B68BFF35F8F00221A60E6
:101F400081F3108820BF0499059A0D4B5B6A9A4271
:101F5000E3D80B48806A884203D29A42DBD001233F
:101F6000DCE70123DAE7C04630AC0410E8AA04102D
:101F700098AC041004AB0410991500105C1A0120F1
:101F800000400540F8B504000D0000F0C3F8020061
:101F90000B1E10DB20002900801859418B4202D80B
:101FA00004D1824202D901204042C117002908DB36
:101FB000FFF76AFFF8BD064B064A3F21064800F0CE
:101FC00089FC034B034A3F21034800F083FCC046D1
:101FD000E8AA041098AC041004AB041010B5FA225F
:101FE00092000023002103F01DF8FFF7CBFF10BD86
:101FF00070B584B006000C00FFF700FE00230293CA
:102000000193194B009332002300FFF70DFE051ECC
:1020100011DD20BFFFF7F2FD2900FFF7BDFE134BD6
:102020005B6A9C421BD8114A926AB2421AD29C4205
:1020300013D0012014E00D4B5B6A9C4209D80B4A77
:10204000926AB24207D29C4201D0012008E00020EF
:1020500006E0002004E0012002E0002000E0002073
:1020600004B070BD0120FBE7991500100040054049
:1020700070B5EFF305833F2018401038EFF3108C54
:1020800072B6194B1B68002BFBD0BFF35F8F012387
:1020900019008140154A5163154A12781400C44052
:1020A000234214D0114B5C6A8300124D5B599C4251
:1020B00006D38300104C1B598A430D490A7007E070
:1020C0000A4A031D9B0099589950002300E0002301
:1020D000BFF35F8F044A002111608CF31088002B3E
:1020E00000D0984770BDC046280100D00040054090
:1020F000A51A0120701A0120A424002010B50100A7
:10210000024A0348FEF734FE10BDC0465CAD041021
:10211000A01A0120044B5B6A034A906A1900536AB3
:102120009942F9D17047C04600400540084B5B6AB0
:1021300001E0074B5B6A8B42FBD301E0044B5B6A17
:102140008B4203D1024B9B6A8342F7D37047C04650
:102150000040054070B504000D00EFF3108672B624
:102160001B4B1B68002BFBD0BFF35F8F002D1CD0D7
:102170002000FEF71BFF174B83420BD019002000F5
:10218000FEF72EFF01212000FEF700FF0123A340F0
:10219000114A1360A400114BE550BFF35F8F0C4B45
:1021A00000221A6086F3108870BDA2000B4B00213C
:1021B000D1500122A2400A490B7893430B70054984
:1021C0002000FFF74FF800212000FEF7DFFEE4E7D4
:1021D000280100D07120001038600540A4240020A0
:1021E000A51A0120F0B5DE4600B584B00400150044
:1021F00001921E000293FFF78DFF03958E4202D8D5
:102200004ED185424CD9EFF3108B72B6274B1B6829
:10221000002BFBD0BFF35F8F254A17780125A5401F
:10222000EBB23B431370234B5D63221D9200019977
:10223000D150A2002049029850501B6A2B4212D163
:102240001C4B1B6C2B4208D00020BFF35F8F174B39
:1022500000221A608BF3108823E0184B184AC12122
:10226000184800F037FBFFF755FF8E4214D802D113
:10227000039B834210D80E4B1B78BB420ED00D4BF4
:102280001D625D631F2004400123A3400E4A1360BA
:10229000074B1F701E38D8E70020D6E70120D4E78F
:1022A000012004B080BCBB46F0BDC046280100D070
:1022B000A51A012000400540701A012080AD0410CD
:1022C000FCAD0410A4AD041080E200E0EFF3108C2C
:1022D00072B60B4B1B68002BFBD0BFF35F8F012343
:1022E0008340084A136208490A789A430A70BFF388
:1022F0005F8F034B00221A608CF310887047C04632
:10230000280100D000400540A51A012010B5002981
:102310001ED0037B99421BD84B005B18033B04681B
:10232000A4466344002919D0002A1DD0914221D02F
:10233000002A25D0047BA24222D8046850008018CD
:10234000033820188170197800291FD11A7010BD28
:10235000104B114A6821114800F0BCFA104B114A89
:102360006F310E4800F0B6FA0F4B0E4A70210B4841
:1023700000F0B0FA0D4B0B4A7121084800F0AAFAA0
:10238000044B054A6821054800F0A4FA41701A7010
:10239000DDE7C04614AA041018AF041030AA0410D8
:1023A00090AA041004AF04109CAA0410A8AA041058
:1023B00070B506000D001400002914D0002A14D0B6
:1023C000806873689847002806D0220029003000F2
:1023D000FFF79CFF280007E02A0021003000FFF7EC
:1023E00095FF200000E0100070BD0800FCE7000031
:1023F00010B50023437301338373037BC37301233D
:10240000027B9A4214D9002B0CD0027B934209D84C
:102410005A00D218033A01688C4662440133DBB299
:102420005370EDE70B4B0C4A68210C4800F052FA50
:10243000002A09D0924207D8016853009A18033A3B
:102440008A180023537010BD024B034A68210348C9
:1024500000F040FA14AA041018AF041030AA0410B7
:1024600010B5017342608360FFF7C2FF10BD00002A
:1024700070B50400081E00D170BD002934D0237B44
:10248000994231D84B005B18033B22689446634461
:102490005A78002AF0D02DD0237B9A422AD85300B4
:1024A0009B18033B21688C4663445D78002159707A
:1024B000002825D0237B984222D843001B18033BD9
:1024C00021688C4663440021597001002000FFF709
:1024D0006FFF060029002000FFF7CAFF020031004D
:1024E0002000FFF765FFC7E7084B094A6821094844
:1024F00000F0F0F9054B064A6821064800F0EAF9B9
:10250000024B034A6821034800F0E4F914AA0410BE
:1025100018AF041030AA041070B505000C001600A6
:10252000002928D02DD0037B99422AD84B005B1874
:10253000033B0268944663445A78002A27D19A786C
:10254000002A2AD11978FFF793FF0300002E03D049
:10255000EA7B002A27D1EC73002B37D1002C49D01D
:102560002B7B9C4246D82B6861000C19033C1C193C
:102570000023637070BD224B224A3821224800F0AC
:10258000A9F9224B224A6821224800F0A3F9224BE4
:102590001C4A3A211C4800F09DF9204B194A3B2166
:1025A000194800F097F9002A0AD0297B8A4207D8F7
:1025B00051008A18033A29688C4662445470CAE76D
:1025C000124B134A6821134800F084F9002B0BD0FA
:1025D0002A7B934208D843001B18033B2A68944681
:1025E000634400229A70B9E7084B094A68210948F8
:1025F00000F070F9054B064A6821064800F06AF9B8
:1026000018AE0410F0AE041020AE041014AA04108A
:1026100018AF041030AA04106CAE041094AE04106D
:1026200070B504000A00457B2900FFF775FF607351
:10263000280070BD70B50400002967D0437B8B4231
:102640000ED0002911D0037B99420ED84B005B18A5
:10265000033B0268D0188378002B0CD1002056E091
:102660000121FFF7DDFF012051E0294B294A6821B4
:10267000294800F02FF9002B20D0227B93421DD84F
:102680005A00D318033B2268D2182568EB5C8B42B2
:102690001AD0002B1BD0227B934218D85A00D31893
:1026A000033B2268D21853788B4216D0002BF0D10E
:1026B0001A4B1B4A67211B4800F00CF9144B154AB2
:1026C0006821154800F006F94378137007E0104BB5
:1026D000104A6821104800F0FDF843785370002339
:1026E0008370437001222000FFF716FF0200617B18
:1026F000814205D02000FFF75BFE6073012006E0F9
:10270000094B074A6D21074800F0E4F8002070BD2E
:1027100014AA041018AF041030AA0410C4A804109E
:10272000D8AE041020AE0410B8AE041010B50400EA
:10273000FEF79AFB01002000FEF706FFFF2323713E
:10274000BFF35F8F10BD10B50400FEF78DFB0100D5
:102750002000FEF7F9FEFF23237100236371BFF30E
:102760005F8F10BD034B9C46614489000160BFF33D
:102770005F8F70474000003410B504000120FEF761
:1027800081FB01002000FFF7EDFF10BD70B50400D4
:102790000D00062000F052FAC000290001F07CFC78
:1027A000C60908D00E4B9E4217D87F23184001302F
:1027B0003500460800E001256562A6622C348020C1
:1027C0008001044300232360062000F037FA8000D4
:1027D000A901891901F060FC70BD0026014DEBE7ED
:1027E000FEFF0000FFFF0000002909D00A22064B6F
:1027F0009C466044434258414000044BC2527047DB
:1028000080225200F3E7C0460080FCBF801A0120FE
:1028100070B505000C00062000F010FA002829D041
:10282000164B9D4227D08022D203154B1A60154BC0
:102830001A60154B9B6811009943FAD100212800BA
:10284000FFF7D2FF21002800FFF7A0FF2C002C3457
:10285000E96A60224A406E211140802252012243DF
:1028600011600A4B2B6380239B01234310221A60C3
:102870000323AB6470BD80221204D6E700800340BE
:1028800000E0004000F0004000C0004001030000F4
:1028900000BEFDE703000A4A1268002A08D0084A71
:1028A0001068C318074A9A4206D3054A1360704756
:1028B000034A05491160F2E701204042F7E7C046AC
:1028C0007830002000000420A81A012010B5FFF77E
:1028D000DFFF000010B582B00C001900002A0CD0F8
:1028E000084B002A0BD001920093230002000648F7
:1028F00003F066F80120FFF7CBFF044BF1E7034A32
:10290000F1E7C04600B0041010B0041000940410A9
:1029100070B52B4B2B4A1A602B4B2C4A1A602C4B50
:102920009A682A4B9343FAD12A4C01E008CC984785
:10293000294B9C42FAD300F001F9234B274A1A6035
:10294000234B9B68DB43DB01FAD1254B40229A677E
:102950005A671A67DA66234C09E0234B234A83211E
:102960002348FFF7B7FF2000FFF7E0FE0834214BB4
:102970009C4209D22368002BF5D0012BEDD1200019
:10298000FFF7E1FE0834F2E71B4CA1681B4DC022A3
:10299000280002F0C1FEA560FDF765FC002800D00C
:1029A00000BEFEF751FAFEF7A9FDFFF70BF9144C34
:1029B00001E008CC9847134B9C42FAD370BDC04647
:1029C00000E00040BFCDFBFE00F00040FE7F3C0079
:1029D00000C00040001E0020101E0020FFFFFF016D
:1029E00000F00140F81D002040B00410C8B00410F1
:1029F00060B00410001E002000ED00E00000002088
:102A0000101E0020201E00200FB400B583B008481F
:102A100002F0A4FF049B002B07D005A90191180028
:102A200002F0ACFF034802F099FF0120FFF730FFEE
:102A3000B8B0041030C00410F8B5DE4657464E4614
:102A40004546E0B505000F0092460A9A93424ED3E0
:102A50001A0E91461E020A9A00233000494601F0E0
:102A60005DFB80466C006419A4002F4B9C466444B7
:102A70006368834200D260602B1FDBB29B46012B50
:102A80003BD9C0239B012343802212011A60AB0073
:102A9000264A9958002905D0506901F0FDFA013005
:102AA0000138FDD153465A0123685A40E0231A40A9
:102AB00080235B0123431A605A46012A28D98023C8
:102AC0009B012343802212011A6043466360424601
:102AD00000233000494601F021FBAD00134B585153
:102AE0000120F0BCBB46B246A946A046F8BD104B3B
:102AF000104A2D211048FFF7EDFE012FC1D1C02350
:102B00009B01234303221A60A368DB07FCD5C9E7B6
:102B10002168794003220A401A60A2680123BB4061
:102B20001342FAD0CBE7C04600800040B82F002007
:102B3000D8B0041044B10410ECB0041030B583B028
:102B40000C2000F021F9FEF775F900280DD00023C4
:102B500004E099002D4A2E4888500133092BF8D9FA
:102B60002A4B2C4A5A6203B030BD2B4B00229A6785
:102B700000F07CF9294B01221A60274B5B6C012B7A
:102B8000FBD1274B03221A60234B9B6B012BFBD1FC
:102B9000013300930433234A0121234800F054F801
:102BA00005230093214A0121214800F04DF8214BD3
:102BB0000093002202210420FFF73EFF1E4D0095E6
:102BC0002B00002201210520FFF736FF104C009456
:102BD0002300002200210720FFF72EFF009423008E
:102BE000002200210820FFF727FF0A4B0093230053
:102BF000002200210920FFF71FFF00952B00002273
:102C000000210620FFF718FFADE7C046B82F0020CF
:102C1000006CDC021BB70000008000403CB00040AC
:102C200030B00040002F685900800240008C864779
:102C300000C00240001BB700405973078000014BE1
:102C4000C0587047B82F0020F0B5C64600B5040044
:102C50000F0090461D000C2001F01EFA06003D4AB0
:102C600042443D4B9A4243D843011B1A9901C91A69
:102C7000C90009188901404601F00EFA0200103A15
:102C800098235B009A4239D86B1E062B3CD8069BD2
:102C9000013B062B38D8069B9D423BD343461A097D
:102CA000B2423DD32D04069B1E0335432368002BFF
:102CB0003CDB2A4B9C424AD080225201284B1A60AE
:102CC000284B1A60284B9B6811009943FAD1276062
:102CD000A060231DC02292011A43212313602368A0
:102CE000002BFCDAE5600823136080BCB846F0BD19
:102CF0001E4B1F4A11211F48FFF7ECFD1E4B1C4ABB
:102D000019211C48FFF7E6FD1C4B194A1C211948E4
:102D1000FFF7E0FD1A4B164A22211648FFF7DAFDAD
:102D2000184B134A25211348FFF7D4FD22683F238F
:102D30001340BB42BDD1A3681B051B0D8342B8D114
:102D4000E368EE22D2021340AB42B2D1CDE780223B
:102D50009201B3E780E84BD380F8A93200C002406B
:102D600000E0004000F0004000C0004054B10410FA
:102D7000A4B20410B4B1041008B2041024B20410B8
:102D800070B2041088B2041080239B000343014AF0
:102D9000D362704700800540024B1A68024B5A60AC
:102DA0007047C0467C3900200080054010B5020005
:102DB000164B8020C0051860154B16481860002976
:102DC0000AD0154BE021C9041960002A09D1124B21
:102DD000802212061A6010BD0C4BE021C904196054
:102DE000F3E753019B1A9800801800010B4B186001
:102DF00080235B04984202D3084B094A1A60FFF70C
:102E0000CBFF054B8022D2051A60E4E700B00540F5
:102E100008200140FCFF010000A005407C39002093
:102E2000FFFFFF0010B5030010000C4A8024E405EA
:102E30001460002B0DD001221343094A094CD461C0
:102E4000094C5C401462516293620021FFF7AEFFAF
:102E500010BD034B0022DA61F7E7C04600B0054021
:102E600000800540D3C007B02D3FF84F064BAA2283
:102E700012011A602F22DA60044B054A1A60024BD5
:102E80005B68002BFBDA70470040024000600240A4
:102E900000B0FA00704710B5002802D00B684968EE
:102EA000984710BD0100002007E083001B185B005D
:102EB000501C08601078C01830380A681378303B0E
:102EC000DBB2092BF1D97047F0B5DE4657464E46C6
:102ED0004546E0B583B093461F000C9B9A460D9C77
:102EE0000E9B99460F9B9B0703D0B8460F00060028
:102EF00022E00192A34688464E46B9460700B442F6
:102F000007D2551C4B4641462020B84701342A00C1
:102F1000F5E73D004F465C46019B9B46B146464661
:102F2000B84637002E0007E0013C551C5346185D9B
:102F300043463900B0472A00002CF5D135003E0049
:102F400047460F9B9B0707D4100003B0F0BCBB465D
:102F5000B246A946A046F0BDB0464E46B9462F003F
:102F60005D46531BB342EFD2541C4B4641462020D2
:102F7000B8472200F5E7F0B5CE46474680B585B0A4
:102F8000944698460C9D0D9C0EAB1B789946109A62
:102F9000119B129EB7071CD4002B0CD0F7070AD543
:102FA0004F46002F02D10C37374204D0013B02E0DC
:102FB00030272F550134944201D21F2CF8D9F7073E
:102FC00007D59C4205D21F2C03D830272F5501343A
:102FD000F5E7F70615D5770505D4002C03D0944204
:102FE00024D09C4222D00F9A102A2BD00F9A102A5C
:102FF00030D00F9A022A35D01F2C02D830222A5501
:1030000001341F2C05D84A46002A31D02D222A55DA
:103010000134039602930194009543466246FFF7FC
:1030200053FF05B0C0BCB946B046F0BD621E012CCE
:1030300006D00F9F102F01D01400D4E7023CD2E736
:103040001400D0E7B206D1D41F2CCFD878222A554D
:103050000134D1E7B206CCD51F2CCAD858222A5544
:103060000134C9E71F2CC7D860322A550134C3E7A1
:10307000720703D52B222A550134CAE73207C8D577
:1030800020222A550134C4E7F0B5DE4657464E46A5
:103090004546E0B593B081468A46089209931CAB39
:1030A00010CB1B789B461E9D219B9846002C03D17C
:1030B000102342469A4390468023DB0046461E403A
:1030C00042461A4212D0002C22D000260EE03033A5
:1030D000D9B2771C0AAB99552900200000F0DCFF1B
:1030E000AC4216D31F2F14D83E0004002900200044
:1030F00000F0D2FFCBB2092BE9D94246920605D5A2
:103100004121C918C9B20A39C9B2E2E76121F8E719
:10311000270043460693209B05931F9B049303952A
:103120005B46029301970AAB0093099B089A5146AC
:103130004846FFF720FF13B0F0BCBB46B246A94695
:10314000A046F0BDF0B5DE4657464E464546E0B5D2
:1031500095B0089009910A920B931E9E1F9C20AB7C
:103160001B789B46229B9946239D269B9A463300BB
:10317000234303D1103352469A4392468023DB0007
:1031800057461F4052461A4219D0330023432DD0D0
:10319000002714E03033DAB27B1C98460CABDA55CA
:1031A0004A462B003000210000F0B8FFA5421FD88E
:1031B00019D043461F2B1BD8474606000C004A4631
:1031C0002B003000210000F0A9FFD3B2092BE1D978
:1031D0005246920605D54122D218D2B20A3AD2B24C
:1031E000DAE76122F8E7B145E3D901E00023984628
:1031F00053460693259B0593249B04934B460393C8
:103200005B460293434601930CAB00930B9B0A9AD7
:1032100009990898FFF7AFFE15B0F0BCBB46B2465F
:10322000A946A046F0BD0000F0B5DE4657464E4622
:103230004546E0B591B083468A460C9298461A9C62
:1032400008941B9D099522002B002000290001F005
:10325000FCF9002800D0E5E001225242D74B2000C3
:10326000290001F0EDF9002800D0DBE001225242F4
:10327000D34B2000290001F0CDF9002800D0D1E087
:1032800000220023089E3000099D290001F0C2F9A8
:10329000002800D0DDE00898099906900791802366
:1032A000DB001E9A1A400D921E9A1A4201D1062383
:1032B0001C930698079904000D000A0006000243BB
:1032C00000D1D1E0080D4005400DBE4CA44660443D
:1032D0000A03120BBC4B13431F0001F0C9F9BB4A90
:1032E000BB4B01F04CF9BB4ABB4B01F021F9040088
:1032F0000D000022B94B3000390001F010F9B84A36
:10330000B84B01F03CF902000B002000290001F04D
:103310000FF901F0C5F9814601F0AAF904000D008A
:10332000B14AB24B01F02BF90022B14B01F000F988
:1033300001F0B6F90600AF4AAF4B2000290001F0BA
:103340001EF904000D00300001F092F9AB4AAC4BBD
:1033500001F015F902000B002000290001F0DFF850
:1033600004000D0002000B0001F009F90A900B9116
:10337000A44BF31800261F0522002B002000290073
:1033800001F0D6F80E900F9122002B000020802132
:10339000C90501F0C4F804000D0000229A4B0A98F8
:1033A0000B9901F0CEF80022984B01F0C1F8020011
:1033B0000B000A980B9901F0C4F80022944B01F01D
:1033C000B7F802000B000A980B9901F0BAF8020056
:1033D0000B002000290001F0ABF802000B000E9852
:1033E0000F9901F0AEF80022774B01F0A1F83200FE
:1033F0003B0001F0C4F806000F0004000D00069A1F
:10340000079B01F01DF9002830D001235B429C4648
:10341000E14400227D4B3000390001F092F80400B5
:103420000D0023E01E9B04931D9B03931C9B0293A2
:10343000089A099B0092019343460C9A51465846BC
:1034400000F0FCF811B0F0BCBB46B246A946A0465D
:10345000F0BD0023002406930794069680231B06E4
:103460009C46654407951AE7002399464B4663330B
:10347000C62B1ED804261E9B1B0526D52B002343D6
:103480000FD0644A644B0698079901F0D1F80028E0
:1034900079D00022614B0698079901F0BBF800280B
:1034A00071D01C9B4B4506DD4A46981A431E1C935F
:1034B00003E00526DFE700231C938023DB001E9A30
:1034C0001A431E920026002399461D9B9E4264D2F9
:1034D0009F1B02231E9A1A400A921E9A134202D080
:1034E000002E00D000274B46002B07D022002B00D7
:1034F0000698079901F025F806900791002200230D
:103500000898099901F086F8002848D1444B1E9A82
:103510001340049303971C9B0293069B079C009304
:10352000019443460C9A5146584600F087F8002E05
:1035300000D187E71E9B9B063DD54525441C43468D
:10354000020051462800D8474B46DA179B185340D3
:1035500005220592013E0496002203920A3202924D
:103560004A46D00F019000934346220051465846E8
:10357000FFF78AFD0A9B002B00D163E702005F463C
:103580000C9E1D9D54E01C9B002B9ED00D9B002B80
:103590009BD01C9B013B1C9397E7002799E7069C57
:1035A000079D2200290080200006844661440B000C
:1035B00006920793AAE76525C0E7C046FFFFEF7FA5
:1035C000FFFFEFFF01FCFFFF0000F03FFB799F5082
:1035D0001344D33FB3C8608B288AC63F0000F83F2E
:1035E00061436F63A787D23F71A379094F930A4064
:1035F0000000E03F1655B5BBB16B0240EF39FAFE53
:10360000422EE63FFF03000000002C400000244053
:10361000000018402D431CEBE2361A3F80842E41F7
:10362000FFF7FFFF541C434651462020B8472200B5
:10363000931BAB42F6D3100004E7C046F0B5DE465C
:1036400057464E464546E0B595B0069007919346DD
:103650009946209F1E9A1F9B1000190000F0F5FF4D
:10366000002831D101225242BF4B1E981F9900F011
:10367000D1FF002837D101225242BC4B1E981F991E
:1036800000F0DEFF00283DD10022B94B1E981F99A3
:1036900000F0D6FF002850D10022B64B1E981F998B
:1036A00000F0B8FF002848D1002200231E981F997F
:1036B00000F0B0FF002850D100239846229B5B0504
:1036C00000D4B6E0002458E0229B0393219B029390
:1036D00003230193A84B00934B465A46079906983B
:1036E000FFF7F2FB0EE1229B0393219B029304233D
:1036F0000193A24B00934B465A4607990698FFF751
:10370000E3FBFFE00423229A1A4022990B4210D0D7
:103710009B4B002A0FD004222299039121990291F8
:10372000019200934B465A4607990698FFF7CCFB47
:10373000E8E0944BEDE70322EEE7229B0493219B04
:10374000039302971E9B1F9C009301944B465A467D
:1037500007990698FFF768FDD4E01E9A1F9B00208A
:10376000002100F0DCFE1E901F9101239846A5E782
:103770000CAB30221A55013F01341F2C01D8092F00
:10378000F6D81E981F9900F08BFF050000F070FF1F
:1037900002000B001E981F9900F0C1FEFA007A4B40
:1037A0009B181A685B680A920B9300F0E8FE089079
:1037B000099100F099FF060000F056FF02000B008F
:1037C0000898099900F0ABFE0890099100226F4B10
:1037D00000F036FF00282ED00136300000F044FF04
:1037E00002000B000A980B9900F01AFF002801D084
:1037F00001350026002F2CD1280000F039FF0200EF
:103800000B001E981F9900F08AFE06000F00002290
:103810005E4B00F0FFFE002846D100225B4B3000DB
:10382000390000F00DFF00283ED1EB073CD50135F3
:103830003AE0062746E70022544B0898099900F021
:10384000E9FE0028D6D1002E01D0F307D2D50136EB
:10385000D0E7AA461F2C11D8013F0A21300000F002
:103860001BFC651C30310CAB19550A21300000F0EF
:1038700013FC092E0ED906002C00EBE755461F2C31
:103880000CD87B1E002F09D00CAA302111551F0027
:103890000134F4E72B0055461C00F0E71F2C03D839
:1038A0000CAB2E221A5501341F2C10D80A212800E7
:1038B00000F0CAFB661C30310CAB19550A212800F8
:1038C00000F0C2FB051E01D03400EDE734000323F5
:1038D000229A1340012B1CD01F2C06D84346002BE4
:1038E00032D00CAB2D221A550134229B0393219B1D
:1038F000029301940CAB00934B465A4607990698E5
:10390000FFF7E2FA15B0F0BCBB46B246A946A046A6
:10391000F0BD219B002B13D04346002B02D10C336A
:1039200013420FD0219B013B2193190003E00CAB04
:1039300030221A5501348C42CED21F2CF7D9CBE756
:103940002199F8E72199F6E7229B5B0704D50CAB98
:103950002B221A550134C8E7229B1B07C5D50CAB97
:1039600020221A550134C0E7FFFFEFFFFFFFEF7F72
:1039700065CDCD4165CDCDC1BCB20410C0B204103F
:10398000B4B20410B0B20410A8B404100000E03FB8
:10399000F0B5DE4657464E464546E0B593B0824602
:1039A0008B4690461193002900D1EBE20027554643
:1039B000119B1878002800D1E7E2252809D07C1C4B
:1039C00043463A005946A847119B013311932700FB
:1039D000EEE7013311930024119A11780B00203B7C
:1039E000D8B2102803D88300D048C3589F460B0094
:1039F000303BDBB2092B2CD92A292FD000230A9384
:103A0000119B1A782E2A39D000239A46119A1378DE
:103A1000683BD9B2122976D88B00C549CB589F464E
:103A200001231C4301321192D6E702231C430132C9
:103A30001192D1E704231C4301321192CCE70823F1
:103A40001C4301321192C7E710231C43013211922B
:103A5000C2E711A8FFF726FA0A90D1E71C9B1A1DAE
:103A60001C921868002804DB0A90119B0133119303
:103A7000C6E702231C4343420A93F6E78022D200A2
:103A800014435A1C11925A781300303BDBB2092BB5
:103A900004D92A2A07D000239A46B7E711A8FFF7CE
:103AA00001FA8246B2E71C9B1A1D1C921868002876
:103AB00004DB8246119B01331193A7E70020F8E74E
:103AC00080235B002343511C119152786C2A01D052
:103AD0001C0018E0C0239B001C430131119112E02F
:103AE00080232343511C11915278682A01D01C0075
:103AF00009E0C0231C430131119104E080235B00E5
:103B00001C4301321192119B18780300253BDAB255
:103B1000532A00D92CE29300864AD3589F4680232B
:103B20009B001C4301321192EDE780235B001C4394
:103B300001321192E7E7782809D0582838D06F2849
:103B400038D0622838D010239C430A2600E0102683
:103B5000582833D0692803D0642801D00C2294431C
:103B6000630501D50122944369282AD0642828D00E
:103B7000A30500D59FE0E30500D5B8E0630600D4B7
:103B8000CAE01C9A111D1C911168FF220A4005947D
:103B90000A9B0493534603930296002301930092D9
:103BA00043463A0059462800FFF76EFA070027E01F
:103BB0001026CDE70826CBE70226C9E720221443CA
:103BC000C8E7A30520D4E30550D4630666D51C9A44
:103BD000111D1C911168FF220A40D317D1185940BA
:103BE00005940A9B0493534603930296D20F0192C5
:103BF000009143463A0059462800FFF745FA07006E
:103C0000119B01331193D3E61C9BDA1D07218A43D4
:103C1000110008311C91116853689C46DB170C9306
:103C20000D930C9A0D9B100048400E906246534035
:103C30000F930E980F990C9A0D9B801A99410E9034
:103C40000F9108940A9B079353460693049600230A
:103C500005936346DA0F02920090019143463A00C1
:103C600059462800FFF76EFA0700C9E71C9A111D94
:103C70001C911268D317D118594005940A9B0493DC
:103C8000534603930296D20F0192009143463A00A5
:103C900059462800FFF7F8F90700B1E7230605D5D4
:103CA0001C9A111D1C910023D25E96E71C9A111DCF
:103CB0001C91126891E71C9BDA1D07218A431100B1
:103CC00008311C9108940A9B079353460693049667
:103CD00000230593029313685468009301944346AC
:103CE0003A0059462800FFF72DFA070088E71C9A8A
:103CF000111D1C9105940A9B04935346039302964D
:103D0000002301931368009343463A005946280064
:103D1000FFF7BAF9070073E723060DD51C9A111DAA
:103D20001C9112681204120C31E7C046C8B204108C
:103D30000CB3041058B304101C9A111D1C91126886
:103D400025E746281AD01C9B0733072293431A0005
:103D500008321C9204940A9A0392524602925C68BA
:103D60001B680093019443463A0059462800FFF728
:103D700065FC0700119B0133119319E620231C43B6
:103D8000E1E7672801D0472802D180231B011C43AB
:103D9000452801D0472801D120231C431C9B073311
:103DA000072293431A0008321C9204940A9A039241
:103DB000524602925C681B680093019443463A00A5
:103DC00059462800FFF730FA0700119B0133119381
:103DD000EEE502231A002240924623421FD001241E
:103DE0001C9B1A1D1C927A1C9146187843463A0077
:103DF0005946A8475346002B16D1119B0133119306
:103E00004F46D5E5561C434659462020B847230067
:103E100032005C1C9D42F5D83D001700E0E701230D
:103E20003A002F000A9DF4E74A46A9460A9D06E09B
:103E3000571C434659462020C84734003A00661CA8
:103E4000A542F5D84D469146D7E71C9B1A1D1C92FA
:103E50001B6899465346002B00D1013B4E4601E0BA
:103E6000013613003278002A02D05A1E002BF7D1F7
:103E70004B46F21A10928023DB0026001E401C42A3
:103E800003D0524501D95346109302231A00224011
:103E90000B92234205D03A0037004C46A9465546BE
:103EA00020E03A00109B5F46B3462E0006E0551C0A
:103EB000434639002020B04723002A005C1C0A99A1
:103EC0009942F4D835005E46BB46109437004C4604
:103ED000A946554606E01D000134561C4346594686
:103EE000C84732002078002804D0002FF4D06B1E81
:103EF000002DF0D117004D460B9B002B03D1119BD9
:103F00000133119354E50A9F109B06E0561C43466B
:103F100059462020A847230032005C1C9F42F5D858
:103F20001700ECE721231C431C9B1A1D1C921B68E5
:103F3000009305940823049353460393102302939C
:103F40000023019343463A0059462800FFF79CF8A6
:103F50000700119B013311932AE57C1C43463A006C
:103F600059462520A847119B0133119327001FE5CF
:103F70007C1C43463A005946A847119B01331193D4
:103F8000270015E50A4B9A4610E5AA46474502D395
:103F900043465A1E00E03A00434659460020D047A7
:103FA000380013B0F0BCBB46B246A946A046F0BDEF
:103FB000952E001000B585B0029003910121009369
:103FC00013004A4202A90248FFF7E2FC05B000BD17
:103FD000972E001001480421014B184710150020AE
:103FE00011400010014B5B681847000010150020BD
:103FF00010B5010018231B8814221088984710BDA3
:1040000010B5010018231B8816221088984710BD90
:10401000F0B5C64600B507000E00002501239846FE
:1040200000E00135B5420AD2AC003C192068FFF728
:10403000DFFF20600028F4D100239846F1E74046D6
:1040400080BCB846F0BD0000124A936F9B0815D2A1
:104050009066D166002905D0FFE7FFE7FFE7516FC3
:10406000106F704704B580210906C217514000281F
:1040700000D0C84345F0F4F8002104BDF0B5146E3B
:10408000556E576F166FFFF7E3FF14665566576757
:104090001667F0BD000000D0114A936F9B0813D241
:1040A00010665166002905D0FFE7FFE7FFE7516F73
:1040B000106F704704B5002801D00020C04345F0C0
:1040C000CFF8002104BDC046F0B5146E556E576F91
:1040D000166FFFF7E5FF1466556657671667F0BD64
:1040E000000000D094464E4A926F9208624601D278
:1040F00030E0C046F0B54A4EB56F6D08FCD3346E63
:10410000756E776F366F00F025F89446444A146652
:104110005566576716676246F0BDC0469446404AEA
:10412000926F9208624601D258E0C046F0B53C4E0C
:10413000B56F6D08FCD3346E756E776F366F00F017
:104140004DF89446364A14665566576716676246B8
:10415000F0BDC046002B24DB11D000293EDA00B5AB
:10416000C943404200D1013100F038F8C943404210
:1041700000D10131DB43524200D1013300BD002A9E
:10418000EBD1002801D1002905D00020C90FC907B3
:1041900001D1C043410800B545F03AF800220023A0
:1041A00000BD00B500290ADBDB43524200D10133D8
:1041B00000F014F8C943404200D1013100BDC943A9
:1041C000404200D10131DB43524200D1013300F0C3
:1041D00005F8DB43524200D1013300BD002923D151
:1041E000002B18D1002A0CD0BC460D4F38667A66D9
:1041F00000210023FFE7FFE7FFE77A6F386F67468C
:104200007047002801D00748010000B545F000F8CC
:104210000022002300BD02000B0000200021704797
:10422000000000D0FFFFFFFF002B00D0BFE0130C09
:1042300028D1002AE7D080B4114F39667A66FFE7AB
:10424000FFE730B4040C7B6F396F1B0423433B66DC
:104250007A66FFE7FFE7FFE7C04684B27B6F3D6FFA
:104260001B0423433B667A66FFE7FFE7C046002353
:104270002C042D0C7A6F386F00196941B0BC70475F
:10428000000000D0F0B594460025140E01D11202B2
:104290000835140F01D112010435940F01D1920099
:1042A0000235D40F01D152000135D40B0134254F12
:1042B0007C66254C3C660E0C93B2FFE7FFE7FFE7F8
:1042C0003C6F6643360C7703BE467343DF0B5B04DB
:1042D000C01AB941130C7343DB18C91ACE086643E0
:1042E000360CB64493B273431F0F1B01C01AB94179
:1042F000130C73431F0B1B05C01AB941860D8F02A7
:104300003E436643360C092D24DB520A7243801A61
:104310007703460A6643360C16235B1BDE40DF40FC
:10432000BF1964466643821B70460435063301009C
:10433000D940A840C01900D30131A24206D20023BF
:10434000F0BD0000000000D0FFFFFFFF121B013096
:10435000F3D3F1E709277F1BFE406446A2B2724304
:10436000801A00D20139220C7243130C1204821AF3
:1043700099410B007046043513370100F940A840FD
:10438000801900D30131002B02D1A2420AD2F0BD24
:10439000013000D30131121BFAD2013BF8D1A24205
:1043A00000D2F0BD013000D30131121BF7E7F0B5A8
:1043B0001C0C00D080E00CB400251C0A04D11B02A8
:1043C000160E3343120208351C0B04D11B01160FC5
:1043D0003343120104359C0B04D19B00960F3343E9
:1043E00092000235DC0B02D192185B4101351C00B2
:1043F000971864410134464F7C66464C3C660E0C6F
:10440000FFE7FFE7FFE7C0463C6F6643360C7703E4
:10441000BE4697B27743C01B00D20139C01B00D201
:1044200001399FB27743C91BC91B170C77437E0420
:10443000FF0B801BB941CE086643360C0C2D33DBD5
:10444000B644120B1F053A431B0B97B27743C01BB0
:1044500000D201399FB27743C91B170C77433E0442
:104460003F0C801BB941860D8F023E4366432927CE
:104470007F1BFE400C3D7746AF40BF1930BCA2B257
:10448000ABB272437343801A9941220C7243130CEE
:104490001204801A994102000B000137001BA94148
:1044A000F9D2781E0021F0BD0C277F1BFE40774615
:1044B0007F0BAF40FF19E0E700245D1C07D0144FCD
:1044C0007D663966FFE7FFE7FFE7FFE73C6F95B2E0
:1044D0009EB265436643401BB141150C1E0C6543FB
:1044E000664336042F0C3E432D04401BB1419942D4
:1044F00004D202000B0020000021F0BD01D1904247
:10450000F7D3801A994101349942F2D3F6E70000BB
:10451000000000D0FFFFFFFF48404140484018B472
:104520001B4B5B68FC46019308BD04DFF349001098
:1045300018B4174B1B68FC46019308BD00DFFD490A
:1045400000109446134A926F920809D2624618B43A
:104550000F4BDB68FC46019308BD0CDFB54C001027
:104560000C4AF0B5146E556E576F166F6246FFF722
:10457000EEFF084A1466556657671667F0BD18B413
:10458000034B9B68FC46019308BD08DF594B0010A4
:10459000580C0120000000D0FFB550404240504070
:1045A00059404B40594000E0FFB5154F4C00640D99
:1045B00003D0BC4204D10C0314D80020090D090516
:1045C0005C00640D03D0BC4204D11C030AD8002255
:1045D0001B0D1B0501264B4009D44B4003D58B42D4
:1045E00000D18242FFBD9942FCD19042FFBD0B43F6
:1045F000DB1803431343F5D0C9434918FFBD00003E
:10460000FF07000000B5FFF7CFFF01D0002000BD7D
:10461000012000BD00B5FFF7C7FF804100BDC046C7
:1046200000B5FFF7C1FF01D9002000BD012000BD8A
:1046300000B5FFF7B1FF01D9002000BD012000BD8A
:1046400000B5FFF7A9FF804100BD012040054A00E9
:10465000121804D85A00121801D8002070470120FF
:1046600070470020704700000021002805D17047E6
:10467000C1174840401AFAD0C90713B5064B1B684A
:1046800098470CBC441CA2401005120B0349091B9F
:1046900009051943114310BD580D01201F040000E6
:1046A00010B54C00620D8023D218DB00D21A5B05D6
:1046B0007E2A10DD9E3A13DACC1709034908194304
:1046C0005242D140640001341532202A05DAD0402C
:1046D0000843604310BD002010BD0846604310BD74
:1046E000C80FC018013810BD18B4044B5B6AFC46F3
:1046F000019308BD24DF654E00100000580C012016
:1047000018B4044BDB6DFC46019308BD5CDF714FB0
:1047100000100000580C012018B4044B5B6EFC46DE
:10472000019308BD64DF694F00100000580C0120A0
:10473000C94211D300B549004908002200F024F80D
:10474000002904D4002240428A41114600BD802144
:104750000906002000BD000018B4044BDB6EFC46C7
:10476000019308BD6CDF734E00100000580C01204F
:1047700018B4044B5B6FFC46019308BD74DF8D4E8B
:1047800000100000580C012018B4044B9B6FFC462D
:10479000019308BD78DF8F4E00100000580C0120F7
:1047A00018B4044BDB6FFC46019308BD7CDFFD4E63
:1047B00000100000580C012070B513231C78012C48
:1047C00014D0012C14DC022C02DC1F4A1F4B9A640B
:1047D0001F48FFF70DFC1F4B186070BD99001A4869
:1047E0001A4A885001331F2BF8D9EAE70023FAE769
:1047F0001948FFF705FC05001848FFF701FC0238CF
:1048000003789B007F2B19DD802229000F4800F0E0
:1048100083FF022CD7D1124B1A88B5231B029A4270
:1048200009D1104B1A88104B9A4204D10F4B1A88A9
:104830000F4B9A42C7D00020FEF7E6F80D4B0E4A08
:1048400032210E48FEF746F8B9490010580C0120F5
:104850004C330000580D0120534400005346000023
:1048600054380000D8380000494600009C38000049
:1048700059460000F8B40410B4B5041058B504103B
:1048800070B50B0D5B055B0D224A944663445A1CC0
:1048900026DB5A1C2AD03422D21A002A1FDD3324E8
:1048A000E41A20235B42E51827D40126AE403300EA
:1048B0000125A5402A0012184B41202149426518C4
:1048C00021D40226AE4031000225A5402800002553
:1048D00044428D411600264030002B40190070BD27
:1048E0000022C90FCB0710001900F8E7CB0FDB0738
:1048F0000020094A1A431100F1E720252D1B01264B
:10490000EE403300D4E720252D1B0226EE40310077
:10491000DAE7C04601FCFFFF0000F03FF0B5C646F5
:1049200000B506000F000B0D5B055A0D002B27D0BC
:104930001F4BD2182CD43424A31A9846002B24DD04
:10494000203B9C4629D401256446A5402B00012527
:104950004446A5402A0001246442E517A4185D419D
:10496000002903DA24184D4126002F000025544267
:104970009D413300234018003B002B40190004E008
:104980000022C90FCB071000190080BCB846F0BD4B
:10499000002909DA00200749F7E720254346ED1AE8
:1049A0000124EC402300D2E700200021EDE7C046BF
:1049B00001FCFFFF0000F0BF07B56046002800D1F2
:1049C00000BE01880A0A0230DF2AFAD1C9B2820881
:1049D00004D3028840880004104300E00068024AC3
:1049E0005050039007BD0000580C01200FB403BCC9
:1049F0000CBCF0B50124E407634000E0F0B50C0DF9
:104A0000CF0F661E3605891B640503D3C943404298
:104A100000D30131640D03D0661CF60A07D0E41BF5
:104A200000207F00791C89078912803C24031D0D1A
:104A3000DF0F6E1E36059B1B6D0503D3DB43524211
:104A400000D301336D0D03D06E1CF60A07D0ED1BA9
:104A500000227F007B1C9B079B12803D2D032F1B98
:104A6000661B58D4A446202E46DA20371400BC40DA
:104A70001D00BD40F24033412A4380185941CB0FFD
:104A800005D0C943C04300226442504151416246AF
:104A90004D0D28D10D0D07D100281FD024194041FC
:104AA0004941013A0D0DF9D0640006D3013000D31D
:104AB0000131002C01D140084000013A0BD4941C74
:104AC000E40A04D112051144DB071944F0BDD907EB
:104AD000204B194300E0D9070020F0BD0029DDD1AB
:104AE000002CDBD1F0BD0132C6074008CD072843BA
:104AF0004908002EE1D0D9E73C2E29DA203E403784
:104B00001400BC4000D00124F24014431A00BB4002
:104B10001C43D317ACE7AC46202F08DA203604003C
:104B2000B4400D00B540F84039412843A5E73C2F7B
:104B30000CDA203F40360400B44000D00124F84095
:104B400004430800B1400C43C117EAE71000190004
:104B5000002494E70000F07FF0B50C0D661E3605CA
:104B6000891BE60A6405640D02D0651CED0A04D0B9
:104B7000002001210905803C2403A4461C0D671E6A
:104B80003F05DB1BE70A6405640D02D0651CED0AD6
:104B900004D0002201231B05803C24037740644499
:104BA00097B484B296B27443070C7E43150C6F43DE
:104BB00080B26843361802D3012000043F18300445
:104BC000350C00197D41844688B29AB250430C0CD2
:104BD00062431F0C7C438EB27E43921902D301269E
:104BE0003604A4191604170C3618674101BC81B2AB
:104BF0009AB25143040C62431B0C5C4380B258438D
:104C0000121802D30120000424181004130C4018B9
:104C100063412D185E410020474106BC88B293B223
:104C200058430C0C6343120C544389B251435B1834
:104C300002D301210904641819041A0C09186241ED
:104C40006D1856410020474118BCF902720D1143FE
:104C5000F0026A0D1043ED020A0D03D16D194041B7
:104C60004941013B124E9B1B7600B3420ED26D00B0
:104C700007D30130002671416646354301D1400813
:104C800040001B05C918E4072144F0BD0BDA0133CD
:104C900006D1013004D101314F0D01D04908F2E7AE
:104CA000E1070020F0BD013631050020EBE70000F0
:104CB000FF030000F0B51C0D671E3F05DB1BE70A74
:104CC0006405640D02D0661CF60A04D0002201239C
:104CD0001B05803C2403D0252D060026F6432E66B6
:104CE0001E096E66CE0FF619B44649004F0D02D06C
:104CF0007E1CF60A03D000200021403F3F033E1BEC
:104D0000B600B444013F7F05C91B49082E6F013628
:104D100076089C02950D25437543ED137543AD133D
:104D200001356D10F603761B0CB4CC02450D2C43F7
:104D3000A2B2B3B25A43270C7B43350C6F43A4B2E3
:104D40006C431B1902D3012424043F191C041D0CBD
:104D5000A4187D4124196D41009A91B2ACB261430F
:104D6000170C7C432B0C5F4392B25A43A41802D316
:104D700001221204BF182204230C52187B41019C0B
:104D80006C431B19520ED9010A434401A01A81B287
:104D9000B2B2514303145A43360C734387B277437C
:104DA000D617D21900277E4136049B191704160C1A
:104DB0007F185E417316ED18F301002680337541AC
:104DC000A90F06D16400690AE8055B0A184309D2F5
:104DD0002FE00422944480337541A90AA8059B0A58
:104DE000184326D3404149412404009A019B0D00F9
:104DF0005543641B4343E41A95B286B27543170CBE
:104E00007E43030C5F4392B25A43B61802D3012289
:104E10001204BF183204330C52197B4152429C4198
:104E2000002C02D40022013051414008CA0710432F
:104E3000490802B06246D7079210084BD218084BB7
:104E40009A4203D212058918C919F0BD0020002A20
:104E500001DC3900F0BD01331905F5E7FD03000061
:104E6000FE070000002200B5203200F010F8080014
:104E700000BD002200B500F00CF8CA179A4200D11C
:104E800000BDD8430121C907414000BD00220B15D8
:104E90000AD410B5944600F0A7F81414013400DACF
:104EA0000021CB17144C204700200021704762449A
:104EB000343A0CD40C2A07DA040091409040524254
:104EC0002032D440214310BDD843D94310BD2032F5
:104ED00007D40C469440524220321141D040204326
:104EE00010BD0800C917203203D4524220321041AD
:104EF00010BD1800190010BDAF4E00104A00520D31
:104F0000144BD21A13DDFF2A1EDAD205CB0FDB07B2
:104F10001A43C300400F0903490A084310435B00CA
:104F200001D301D0013070474308FBD2704702D053
:104F3000C80FC00770470A0312130132F8D1420F9D
:104F4000072AF5D1012200E0FF22C80F00028018D5
:104F5000C00570478003000000210A00002104E022
:104F600000210A00C11704E00022002306E0C04629
:104F70000022CB1758405940C01A994130B5184CFF
:104F8000A21A002903D1010010D00020203A4C15AC
:104F900012D104D2013A001849414C0DFAD3114CF8
:104FA000A24204D212058918DB07C91830BDD243CA
:104FB000520D00200021F5E703D4013A00184941C1
:104FC000FBD50B324405C00A4D052843C90A6400CD
:104FD00003D0002460416141E1E7E0D34408F8E7F1
:104FE00032040000FE0700000A0DCC0F531E1B0503
:104FF000C91A520503D3C943404200D30131520DAF
:1050000003D0531CDB0A07D0121B00206400611C74
:1050100089078912803A1203014BD21A70470000A7
:10502000FF03000051434343C9188C46110C83B25F
:105030004B4310B4040C614392B280B250436243BC
:105040001C041B0C001910BC59411304120CC0188D
:1050500051416144704700004840414048400023AE
:105060009C46114B5B68184700239C460E4B1B68FF
:1050700018470E4A936F9B0804D200239C460A4BA4
:10508000DB681847F0B5146E556E576F166FFFF753
:10509000F4FF064A1466556657671667F0BD00238D
:1050A0009C46014B9B6818475C0D0120000000D016
:1050B00007B548404140484001E0C04607B54200BE
:1050C000120E03D0FF2A03D1420218D8C00DC0052A
:1050D0004A00120E03D0FF2A03D14A020FD8C90D8D
:1050E000C9050122414005D4414001D5814207BD97
:1050F000884207BD0143491801D0C043001807BDCD
:1051000000B5FFF7DBFF01D0002000BD012000BD8E
:1051100000B5FFF7D3FF804100BDC04600B5FFF7E3
:10512000CDFF01D9002000BD012000BD00B5FFF773
:10513000BFFF01D9002000BD012000BD00B5FFF771
:10514000B7FF804100BD491A002807D108467047C3
:10515000C10FC90700D54042002817D0F44603B458
:105160000B4B1B68984706BC81409E3840428031FB
:1051700007D20B0607D04900490AC005104308436F
:1051800060470130F8E7490A8902F5E770470000F7
:10519000580D012041000A0E80231B067E2A0BDDDC
:1051A0009E3A0BDAC1174002400818435242D040E1
:1051B000490001314843704700207047C00FC018B4
:1051C00001387047C0420DD300B5400040080021AF
:1051D00000F012F8002801D4404200BD80200006F3
:1051E00000BD0000034BDB69FC4618471CDF8956F5
:1051F000001000005C0D012000239C46014B5B6AFF
:10520000184700005C0D012000239C46014B1B6BDE
:10521000184700005C0D0120034BDB6FFC4618476C
:105220007CDFA156001000005C0D0120C11504D4E4
:1052300000239C46054B9B691847C843FF2801D1B2
:10524000C0077047C817C005704700005C0D0120FB
:105250004100090E862904DA00239C46044BDB6BCF
:105260001847044900B500F0F0F902BC8E46F3E798
:105270005C0D0120DB0FC9404100090E862904DACC
:1052800000239C46044B1B6C1847044900B500F0F2
:10529000DCF902BC8E46F3E75C0D0120DB0FC94050
:1052A00000239C46014BDB6C184700005C0D01207D
:1052B00000239C46014B1B6D184700005C0D01202C
:1052C00070B513231D782A48FEF79AFE0400012DBD
:1052D00011D0012D09DDA31E1B789B007F2B40DD23
:1052E00080222100234800F017FA2348FEF780FEB1
:1052F000224B186070BD542201001E4800F00CFAC9
:105300001F4B1A881F4B9A421CD1A7239B011A8856
:105310001D4B9A4216D11D4B1A881D4B9A4211D132
:105320001C4B1A8894239B019A420BD11A4B1A8862
:105330001A4B9A4206D11A4B1A681A4B9A4201D15B
:10534000152307E01848FDF75FFB99001748094A45
:10535000885001331F2BF8D9144A064B1A62DA61C0
:10536000B7E7134B134A42211348FDF7B3FAC0467F
:10537000534600005C0D01204C330000580D012005
:10538000EE290000C40F0000C20D0000962B0000A3
:10539000C0B50000182B0000CC2A000010B500009A
:1053A000FC2C000051ED8764009404105556001049
:1053B000C8B5041058B60410FCB50410F0B5C646C4
:1053C00000B505000F00161E98461BDDC91101200F
:1053D0004042FEF761FE00220EE00C236C124443B3
:1053E0001D21C91A0C41013464109D4021007943EC
:1053F0006D1A9A401219F61A002E05DD0C2EECDCFF
:105400003300EBE70020E6E7BD4201DBED1B013294
:10541000BD4201DBED1B0132002D09DB002D0ADB53
:105420004346002B00D01A60280080BCB846F0BD6F
:10543000ED19013AF2E7ED19013AF1E7C20DFF2348
:1054400013407F3B5A1C0FDB5A1C10D01722D21A74
:10545000002A08DD1621C91A01228A4010180223E9
:105460008B405B4218407047C00FC007FBE7C00F7E
:10547000C007FE239B051843F5E7000010B50300A5
:10548000C10DFF2422000A400C420ED07F3A0FD4F7
:105490001721891A00290ADD01228A40511E00289D
:1054A00000DA0B185042184001E0C00FC00710BDD1
:1054B000002801DA0148FAE70020F8E7000080BF81
:1054C00010B50300C10DFF2422000A400C420ED08B
:1054D0007F3A0FD41721891A00290ADD01228A4058
:1054E000511E002800DB0B185042184001E0C00F8D
:1054F000C00710BD002802DA80200006F9E7FE2070
:105500008005F6E770B5C20DFF231340822B04DD42
:10551000002828DBFE20800570BDC30DFF210A0096
:105520001A40194209D0FF2A07D00132FE2A16DD9F
:10553000C40FE407FF20C0052043FFF7B1FE041CA1
:10554000FE218905FFF78BFD051CFE218905201C26
:10555000FFF78AFD011C281CFFF78BFDDCE7802389
:105560001B04C018E9E70148D6E7C046000080BF29
:10557000F0B5CE46474680B583B01600C30F9946B6
:10558000C30DFF24234045026D0A80221204904679
:105590001543CF0FCA0D14404902490A42460A4337
:1055A0009046002E01D000213160FF2B41D0002C0D
:1055B00042D0002B47D0FF2C40D0611E99423DDCE9
:1055C00023D04A46002A00D06D421A1B01AB414647
:1055D0002800FFF7F3FE4300434503DC07D1019B9E
:1055E000DB0704D54346C01A019B01330193002F0A
:1055F00002D0019B5B420193002E01D0019B3360DE
:105600009621091BFFF700FE18E0454516DD4B46C5
:10561000002B06D143465800281A012301930C00A1
:10562000E5E743465800401B01235B4201930C0011
:10563000DDE7FF20C00501E0FF20C00503B0C0BCCE
:10564000B946B046F0BD0020F8E710B50022FFF7DC
:105650008FFF10BD07B56046002800D100BE01884D
:105660000A0A0230DF2AFAD1C9B2820804D30288BA
:1056700040880004104300E00068024A5050039044
:1056800007BD00005C0D01200021C2158032803270
:1056900001D0024A1047002070470000CD2A0000C8
:1056A000C30FDB0741000A0E07D0FF2A08D0090903
:1056B000054A8918194340077047190000207047B0
:1056C0000249C918FAE70000000000380000F07F26
:1056D00010B5040042F0EEFC002804D00419034B7E
:1056E0009C4200D810BD0248FDF78EF9000004204E
:1056F0006CB6041010B542F0E7FC10BD014804215F
:10570000014B18472015002011400010014B1B6869
:105710001847000020150020014B5B681847000067
:105720002015002010B5FFF7D3FF10BD10B5FFF70F
:10573000CFFF10BD10B5FFF7DDFF10BD10B5FFF7AF
:10574000D9FF10BD10B50300080011001B68984771
:1057500010BD0000F8B507000D001600437C002BBB
:1057600002D0002400200CE00368110028009847B4
:105770002DE03B7C10E0022115483B689847601CF7
:105780000134B44214DA002CF3DD2B19013B1B78F1
:105790000D3B5A425341DBB22A5D0A2AF0D1002B5D
:1057A000EED1A042E7DA211A28183B689847E2E7D1
:1057B000B04203DA311A28183B689847002E06DDFC
:1057C000AD19013D2B780D3B5A4253413B74F8BD56
:1057D000E0B6041070B505000368002B16D00C4B22
:1057E0001C6805E0290004C92000FFF7B3FFE46846
:1057F000002C09D02368002BF9D0064B1B68002B26
:10580000F0D0A342F3D1EDE700232B6070BDC0467A
:105810004C3000207430002070B505000C000B687F
:10582000802B05D021684B1C23606418257170BD46
:105830000800FFF7CFFFF5E710B582B0D0231B06B5
:1058400000241C5701A9074843F01AFD002806D17F
:10585000019B9C4203D0034843F05AFD012002B053
:1058600010BDC046F81D002010B5024843F0C8FC2A
:1058700010BDC046F81D0020F0B5CE46474680B5A5
:1058800083B006000D0090461C00FFF7D5FF81464F
:105890006B1C05D0002C08D0194F1A4B1C6807E070
:1058A000300043F011F90500F4E7174FF5E7E4681D
:1058B000002C17D02368002BF9D0144B1B68002B49
:1058C00001D0A342F3D12A0031002000B84743465B
:1058D000002BECD06B46D91D0A230B70012220004F
:1058E000B847E4E74B46002B07D16B1E9D41E8B259
:1058F00003B0C0BCB946B046F0BDFFF7B5FFF4E752
:10590000455700104C3000205557001074300020CF
:10591000094A01E00C331A001368002B08D08342B7
:10592000F8D1002907D1C36813600023C36002E0E7
:10593000002900D0106070474C30002010B5064B95
:105940001C6801E09847E468002C03D06368002BD2
:10595000F8D1F8E710BDC0464C30002070B5050006
:1059600043F0B2F804000023012201002800FFF7F1
:1059700083FFFFF7E3FF200070BD000070B5A2B009
:1059800004000E00FFF758FF05008422002101A843
:10599000FFF7BCFE3300220001A90848FEF70AFB0E
:1059A000040001A8FFF716FFFFF7C8FF002D02D182
:1059B000200022B070BDFFF757FFF9E7195800101B
:1059C0000FB400B583B004A901C90191FFF7D6FF58
:1059D00003B008BC04B0184710B500F053F910BD6F
:1059E00070470000014B00221A707047A21A012074
:1059F0004B79FF2B0CD18B79002B0BD1CB79012B61
:105A00000AD1082A0AD98A78054B1A70092000E0C1
:105A1000002070470020FCE70020FAE70020F8E7AC
:105A2000A21A01200120704770B504000D00034840
:105A3000FEF7DEFA030029002000984755420000D7
:105A400010B5002926D1117953791B020B43124955
:105A500009788B4201D0002010BD5378012B03D070
:105A6000022B10D00020F7E79178D3781B0219435E
:105A7000DB0503D54B0A0120984000E000207F237E
:105A80001940FFF7D1FF642200210020FDF7CAF979
:105A90000120E1E70120DFE7A21A012001230370C2
:105AA00000487047E4B6041010B50B78487800023F
:105AB00018438A7812041043CB781B0603439622BE
:105AC000D200934200D010BD00210800FFF7ACFFC8
:105AD00030B583B005000C0001A9184843F0D0FB95
